{
  "contractName": "ProductAuth",
  "abi": [
    {
      "inputs": [],
      "payable": false,
      "stateMutability": "nonpayable",
      "type": "constructor",
      "signature": "constructor"
    },
    {
      "constant": false,
      "inputs": [
        {
          "name": "name",
          "type": "string"
        },
        {
          "name": "description",
          "type": "string"
        },
        {
          "name": "manufacturer_name",
          "type": "string"
        },
        {
          "name": "manufacturer_location",
          "type": "string"
        }
      ],
      "name": "manufactureBlock",
      "outputs": [
        {
          "name": "_productId",
          "type": "uint256"
        }
      ],
      "payable": false,
      "stateMutability": "nonpayable",
      "type": "function",
      "signature": "0x07943862"
    },
    {
      "constant": false,
      "inputs": [
        {
          "name": "_productId",
          "type": "uint256"
        },
        {
          "name": "assembler_name",
          "type": "string"
        },
        {
          "name": "assembler_location",
          "type": "string"
        }
      ],
      "name": "assemblyBlock",
      "outputs": [],
      "payable": false,
      "stateMutability": "nonpayable",
      "type": "function",
      "signature": "0xbe4eb949"
    },
    {
      "constant": false,
      "inputs": [
        {
          "name": "_productId",
          "type": "uint256"
        },
        {
          "name": "distributor_name",
          "type": "string"
        },
        {
          "name": "distributor_location",
          "type": "string"
        }
      ],
      "name": "distributeBlock",
      "outputs": [],
      "payable": false,
      "stateMutability": "nonpayable",
      "type": "function",
      "signature": "0xccad1bb9"
    },
    {
      "constant": true,
      "inputs": [
        {
          "name": "_productId",
          "type": "uint256"
        }
      ],
      "name": "getManufactureDetails",
      "outputs": [
        {
          "name": "name",
          "type": "string"
        },
        {
          "name": "description",
          "type": "string"
        },
        {
          "name": "owner",
          "type": "address"
        },
        {
          "name": "manufacturer_name",
          "type": "string"
        },
        {
          "name": "manufacturer_location",
          "type": "string"
        },
        {
          "name": "manufactured_time",
          "type": "uint256"
        }
      ],
      "payable": false,
      "stateMutability": "view",
      "type": "function",
      "signature": "0x67000bae"
    },
    {
      "constant": true,
      "inputs": [
        {
          "name": "_productId",
          "type": "uint256"
        }
      ],
      "name": "getAssemblyDetails",
      "outputs": [
        {
          "name": "assembler_name",
          "type": "string"
        },
        {
          "name": "assembler_location",
          "type": "string"
        },
        {
          "name": "assembled_time",
          "type": "uint256"
        }
      ],
      "payable": false,
      "stateMutability": "view",
      "type": "function",
      "signature": "0x0f5c1a2d"
    },
    {
      "constant": true,
      "inputs": [
        {
          "name": "_productId",
          "type": "uint256"
        }
      ],
      "name": "getDistributionDetails",
      "outputs": [
        {
          "name": "distributor_name",
          "type": "string"
        },
        {
          "name": "distributor_location",
          "type": "string"
        },
        {
          "name": "distributed_time",
          "type": "uint256"
        }
      ],
      "payable": false,
      "stateMutability": "view",
      "type": "function",
      "signature": "0x964d04a3"
    }
  ],
  "bytecode": "0x608060405234801561001057600080fd5b5033600260006101000a81548173ffffffffffffffffffffffffffffffffffffffff021916908373ffffffffffffffffffffffffffffffffffffffff160217905550611a9e806100616000396000f3fe608060405260043610610078576000357c0100000000000000000000000000000000000000000000000000000000900463ffffffff168063079438621461007d5780630f5c1a2d1461031e57806367000bae14610445578063964d04a314610677578063be4eb9491461079e578063ccad1bb914610907575b600080fd5b34801561008957600080fd5b50610308600480360360808110156100a057600080fd5b81019080803590602001906401000000008111156100bd57600080fd5b8201836020820111156100cf57600080fd5b803590602001918460018302840111640100000000831117156100f157600080fd5b91908080601f016020809104026020016040519081016040528093929190818152602001838380828437600081840152601f19601f8201169050808301925050505050505091929192908035906020019064010000000081111561015457600080fd5b82018360208201111561016657600080fd5b8035906020019184600183028401116401000000008311171561018857600080fd5b91908080601f016020809104026020016040519081016040528093929190818152602001838380828437600081840152601f19601f820116905080830192505050505050509192919290803590602001906401000000008111156101eb57600080fd5b8201836020820111156101fd57600080fd5b8035906020019184600183028401116401000000008311171561021f57600080fd5b91908080601f016020809104026020016040519081016040528093929190818152602001838380828437600081840152601f19601f8201169050808301925050505050505091929192908035906020019064010000000081111561028257600080fd5b82018360208201111561029457600080fd5b803590602001918460018302840111640100000000831117156102b657600080fd5b91908080601f016020809104026020016040519081016040528093929190818152602001838380828437600081840152601f19601f820116905080830192505050505050509192919290505050610a70565b6040518082815260200191505060405180910390f35b34801561032a57600080fd5b506103576004803603602081101561034157600080fd5b8101908080359060200190929190505050610cef565b604051808060200180602001848152602001838103835286818151815260200191508051906020019080838360005b838110156103a1578082015181840152602081019050610386565b50505050905090810190601f1680156103ce5780820380516001836020036101000a031916815260200191505b50838103825285818151815260200191508051906020019080838360005b838110156104075780820151818401526020810190506103ec565b50505050905090810190601f1680156104345780820380516001836020036101000a031916815260200191505b509550505050505060405180910390f35b34801561045157600080fd5b5061047e6004803603602081101561046857600080fd5b8101908080359060200190929190505050610f56565b6040518080602001806020018773ffffffffffffffffffffffffffffffffffffffff1673ffffffffffffffffffffffffffffffffffffffff168152602001806020018060200186815260200185810385528b818151815260200191508051906020019080838360005b838110156105025780820151818401526020810190506104e7565b50505050905090810190601f16801561052f5780820380516001836020036101000a031916815260200191505b5085810384528a818151815260200191508051906020019080838360005b8381101561056857808201518184015260208101905061054d565b50505050905090810190601f1680156105955780820380516001836020036101000a031916815260200191505b50858103835288818151815260200191508051906020019080838360005b838110156105ce5780820151818401526020810190506105b3565b50505050905090810190601f1680156105fb5780820380516001836020036101000a031916815260200191505b50858103825287818151815260200191508051906020019080838360005b83811015610634578082015181840152602081019050610619565b50505050905090810190601f1680156106615780820380516001836020036101000a031916815260200191505b509a505050505050505050505060405180910390f35b34801561068357600080fd5b506106b06004803603602081101561069a57600080fd5b810190808035906020019092919050505061132f565b604051808060200180602001848152602001838103835286818151815260200191508051906020019080838360005b838110156106fa5780820151818401526020810190506106df565b50505050905090810190601f1680156107275780820380516001836020036101000a031916815260200191505b50838103825285818151815260200191508051906020019080838360005b83811015610760578082015181840152602081019050610745565b50505050905090810190601f16801561078d5780820380516001836020036101000a031916815260200191505b509550505050505060405180910390f35b3480156107aa57600080fd5b50610905600480360360608110156107c157600080fd5b8101908080359060200190929190803590602001906401000000008111156107e857600080fd5b8201836020820111156107fa57600080fd5b8035906020019184600183028401116401000000008311171561081c57600080fd5b91908080601f016020809104026020016040519081016040528093929190818152602001838380828437600081840152601f19601f8201169050808301925050505050505091929192908035906020019064010000000081111561087f57600080fd5b82018360208201111561089157600080fd5b803590602001918460018302840111640100000000831117156108b357600080fd5b91908080601f016020809104026020016040519081016040528093929190818152602001838380828437600081840152601f19601f820116905080830192505050505050509192919290505050611595565b005b34801561091357600080fd5b50610a6e6004803603606081101561092a57600080fd5b81019080803590602001909291908035906020019064010000000081111561095157600080fd5b82018360208201111561096357600080fd5b8035906020019184600183028401116401000000008311171561098557600080fd5b91908080601f016020809104026020016040519081016040528093929190818152602001838380828437600081840152601f19601f820116905080830192505050505050509192919290803590602001906401000000008111156109e857600080fd5b8201836020820111156109fa57600080fd5b80359060200191846001830284011164010000000083111715610a1c57600080fd5b91908080601f016020809104026020016040519081016040528093929190818152602001838380828437600081840152601f19601f820116905080830192505050505050509192919290505050611771565b005b60006101c06040519081016040528060006002811115610a8c57fe5b8152602001600181526020018681526020018581526020013373ffffffffffffffffffffffffffffffffffffffff16815260200184815260200183815260200142815260200160206040519081016040528060008152508152602001602060405190810160405280600081525081526020016000815260200160206040519081016040528060008152508152602001602060405190810160405280600081525081526020016000815250600160008054815260200190815260200160002060008201518160000160006101000a81548160ff02191690836002811115610b6e57fe5b0217905550602082015181600101556040820151816002019080519060200190610b9992919061194d565b506060820151816003019080519060200190610bb692919061194d565b5060808201518160040160006101000a81548173ffffffffffffffffffffffffffffffffffffffff021916908373ffffffffffffffffffffffffffffffffffffffff16021790555060a0820151816005019080519060200190610c1a92919061194d565b5060c0820151816006019080519060200190610c3792919061194d565b5060e08201518160070155610100820151816008019080519060200190610c5f92919061194d565b50610120820151816009019080519060200190610c7d92919061194d565b5061014082015181600a015561016082015181600b019080519060200190610ca692919061194d565b5061018082015181600c019080519060200190610cc492919061194d565b506101a082015181600d01559050506001600054016000819055506001600054039050949350505050565b60608060008360005481101515610d6e576040517f08c379a00000000000000000000000000000000000000000000000000000000081526004018080602001828103825260128152602001807f496e76616c69642070726f647563745f6964000000000000000000000000000081525060200191505060405180910390fd5b60006001600087815260200190815260200160002090506002816001015410151515610e02576040517f08c379a000000000000000000000000000000000000000000000000000000000815260040180806020018281038252600e8152602001807f44617461204e6f7420466f756e6400000000000000000000000000000000000081525060200191505060405180910390fd5b806008018160090182600a0154828054600181600116156101000203166002900480601f016020809104026020016040519081016040528092919081815260200182805460018160011615610100020316600290048015610ea45780601f10610e7957610100808354040283529160200191610ea4565b820191906000526020600020905b815481529060010190602001808311610e8757829003601f168201915b50505050509250818054600181600116156101000203166002900480601f016020809104026020016040519081016040528092919081815260200182805460018160011615610100020316600290048015610f405780601f10610f1557610100808354040283529160200191610f40565b820191906000526020600020905b815481529060010190602001808311610f2357829003601f168201915b5050505050915094509450945050509193909250565b606080600060608060008660005481101515610fda576040517f08c379a00000000000000000000000000000000000000000000000000000000081526004018080602001828103825260128152602001807f496e76616c69642070726f647563745f6964000000000000000000000000000081525060200191505060405180910390fd5b6000600160008a81526020019081526020016000209050600181600101541015151561106e576040517f08c379a000000000000000000000000000000000000000000000000000000000815260040180806020018281038252600e8152602001807f44617461204e6f7420466f756e6400000000000000000000000000000000000081525060200191505060405180910390fd5b80600201816003018260040160009054906101000a900473ffffffffffffffffffffffffffffffffffffffff1683600501846006018560070154858054600181600116156101000203166002900480601f01602080910402602001604051908101604052809291908181526020018280546001816001161561010002031660029004801561113d5780601f106111125761010080835404028352916020019161113d565b820191906000526020600020905b81548152906001019060200180831161112057829003601f168201915b50505050509550848054600181600116156101000203166002900480601f0160208091040260200160405190810160405280929190818152602001828054600181600116156101000203166002900480156111d95780601f106111ae576101008083540402835291602001916111d9565b820191906000526020600020905b8154815290600101906020018083116111bc57829003601f168201915b50505050509450828054600181600116156101000203166002900480601f0160208091040260200160405190810160405280929190818152602001828054600181600116156101000203166002900480156112755780601f1061124a57610100808354040283529160200191611275565b820191906000526020600020905b81548152906001019060200180831161125857829003601f168201915b50505050509250818054600181600116156101000203166002900480601f0160208091040260200160405190810160405280929190818152602001828054600181600116156101000203166002900480156113115780601f106112e657610100808354040283529160200191611311565b820191906000526020600020905b8154815290600101906020018083116112f457829003601f168201915b50505050509150975097509750975097509750505091939550919395565b606080600083600054811015156113ae576040517f08c379a00000000000000000000000000000000000000000000000000000000081526004018080602001828103825260128152602001807f496e76616c69642070726f647563745f6964000000000000000000000000000081525060200191505060405180910390fd5b600060016000878152602001908152602001600020905060038160010154141515611441576040517f08c379a000000000000000000000000000000000000000000000000000000000815260040180806020018281038252600e8152602001807f44617461204e6f7420466f756e6400000000000000000000000000000000000081525060200191505060405180910390fd5b80600b0181600c0182600d0154828054600181600116156101000203166002900480601f0160208091040260200160405190810160405280929190818152602001828054600181600116156101000203166002900480156114e35780601f106114b8576101008083540402835291602001916114e3565b820191906000526020600020905b8154815290600101906020018083116114c657829003601f168201915b50505050509250818054600181600116156101000203166002900480601f01602080910402602001604051908101604052809291908181526020018280546001816001161561010002031660029004801561157f5780601f106115545761010080835404028352916020019161157f565b820191906000526020600020905b81548152906001019060200180831161156257829003601f168201915b5050505050915094509450945050509193909250565b82600060028111156115a357fe5b6001600083815260200190815260200160002060000160009054906101000a900460ff1660028111156115d257fe5b14151561166d576040517f08c379a000000000000000000000000000000000000000000000000000000000815260040180806020018281038252602c8152602001807f4d616e7566616374757265207265636f7264206e6f7420666f756e6420666f7281526020017f207468652070726f64756374000000000000000000000000000000000000000081525060400191505060405180910390fd5b83600054811015156116e7576040517f08c379a00000000000000000000000000000000000000000000000000000000081526004018080602001828103825260128152602001807f496e76616c69642070726f647563745f6964000000000000000000000000000081525060200191505060405180910390fd5b600060016000878152602001908152602001600020905060018160000160006101000a81548160ff0219169083600281111561171f57fe5b021790555060028160010181905550848160080190805190602001906117469291906119cd565b508381600901908051906020019061175f9291906119cd565b504281600a0181905550505050505050565b826001600281111561177f57fe5b6001600083815260200190815260200160002060000160009054906101000a900460ff1660028111156117ae57fe5b141515611849576040517f08c379a00000000000000000000000000000000000000000000000000000000081526004018080602001828103825260298152602001807f417373656d626c79207265636f7264206e6f7420666f756e6420666f7220746881526020017f652070726f64756374000000000000000000000000000000000000000000000081525060400191505060405180910390fd5b83600054811015156118c3576040517f08c379a00000000000000000000000000000000000000000000000000000000081526004018080602001828103825260128152602001807f496e76616c69642070726f647563745f6964000000000000000000000000000081525060200191505060405180910390fd5b600060016000878152602001908152602001600020905060028160000160006101000a81548160ff021916908360028111156118fb57fe5b0217905550600381600101819055508481600b0190805190602001906119229291906119cd565b508381600c01908051906020019061193b9291906119cd565b504281600d0181905550505050505050565b828054600181600116156101000203166002900490600052602060002090601f016020900481019282601f1061198e57805160ff19168380011785556119bc565b828001600101855582156119bc579182015b828111156119bb5782518255916020019190600101906119a0565b5b5090506119c99190611a4d565b5090565b828054600181600116156101000203166002900490600052602060002090601f016020900481019282601f10611a0e57805160ff1916838001178555611a3c565b82800160010185558215611a3c579182015b82811115611a3b578251825591602001919060010190611a20565b5b509050611a499190611a4d565b5090565b611a6f91905b80821115611a6b576000816000905550600101611a53565b5090565b9056fea165627a7a7230582078c6857452afb83fc7fa46d6bb53d29db51081ad113b3ae952a821dc05c43b5b0029",
  "source": "pragma solidity >=0.4.21 <0.7.0;\r\n/// @title ProductAuthentication\r\n/// @author sahisnu\r\ncontract ProductAuth{\r\n    uint product_id;\r\n    enum prod_stage{\r\n        MANUFACTURED,\r\n        ASSEMBLED,\r\n        DISTRIBUTED\r\n    }\r\n    struct product_info{\r\n        prod_stage step;\r\n        uint stage;\r\n    //manufacurer specific\r\n        string name;\r\n        string description;\r\n        address owner;\r\n        string manufacturer_name;\r\n        string manufacturer_location;\r\n        uint manufactured_time;\r\n    //assembler specific\r\n        string assembler_name;\r\n        string assembler_location;\r\n        uint assembled_time;\r\n    //distributor specific\r\n        string distributor_name;\r\n        string distributor_location;\r\n        uint distributed_time;\r\n\r\n    }\r\n    mapping(uint => product_info) product_map;\r\n    address owner_id;\r\n\r\n    modifier afterManufacture(uint _productId){\r\n        require(product_map[_productId].step==prod_stage.MANUFACTURED, \"Manufacture record not found for the product\");\r\n        _;\r\n    }\r\n    modifier afterAssembly(uint _productId){\r\n        require(product_map[_productId].step==prod_stage.ASSEMBLED, \"Assembly record not found for the product\");\r\n        _;\r\n    }\r\n    modifier afterDistribute(uint _productId){\r\n        require(product_map[_productId].step==prod_stage.DISTRIBUTED, \"Distribution record not found for the product\");\r\n        _;\r\n    }\r\n    modifier checkId(uint _productId){\r\n        require(_productId<product_id, \"Invalid product_id\");\r\n        _;\r\n    }\r\n\r\n    constructor() public{\r\n        owner_id = msg.sender;\r\n    }\r\n    function manufactureBlock(string memory name,\r\n        string memory description,\r\n        string memory manufacturer_name,\r\n        string memory manufacturer_location\r\n        ) public returns (uint _productId) {\r\n            product_map[product_id] = product_info(\r\n                prod_stage.MANUFACTURED,\r\n                1,\r\n                name,\r\n                description,\r\n                msg.sender,\r\n                manufacturer_name,\r\n                manufacturer_location,\r\n                block.timestamp,\r\n                \"\",\r\n                \"\",\r\n                0,\r\n                \"\",\r\n                \"\",\r\n                0\r\n\r\n            );\r\n            product_id = product_id+1;\r\n            return (product_id-1);\r\n    }\r\n\r\n    function assemblyBlock(uint _productId,\r\n        string memory assembler_name,\r\n        string memory assembler_location)\r\n        public\r\n        afterManufacture(_productId)\r\n        checkId(_productId)  {\r\n            product_info storage pdt = product_map[_productId];\r\n            pdt.step = prod_stage.ASSEMBLED;\r\n            pdt.stage = 2;\r\n            pdt.assembler_name = assembler_name;\r\n            pdt.assembler_location = assembler_location;\r\n            pdt.assembled_time = block.timestamp;\r\n    }\r\n\r\n    function distributeBlock(uint _productId,\r\n        string memory distributor_name,\r\n        string memory distributor_location)\r\n        public\r\n        afterAssembly(_productId)\r\n        checkId(_productId)  {\r\n            product_info storage pdt = product_map[_productId];\r\n            pdt.step = prod_stage.DISTRIBUTED;\r\n            pdt.stage = 3;\r\n            pdt.distributor_name = distributor_name;\r\n            pdt.distributor_location = distributor_location;\r\n            pdt.distributed_time = block.timestamp;\r\n    }\r\n\r\n    // function getProductDetails(uint _productId) public view\r\n    // afterDistribute(_productId)\r\n    // checkId(_productId)returns(\r\n    //     string  memory name,\r\n    //     string memory description,\r\n    //     address owner,\r\n    //     string memory manufacturer_name,\r\n    //     string memory manufacturer_location,\r\n    //     uint manufactured_time,\r\n    //     string memory assembler_name,\r\n    //     string memory assembler_location,\r\n    //     uint assembled_time,\r\n    //     string memory distributor_name,\r\n    //     string memory distributor_location,\r\n    //     uint distributed_time)\r\n    // {\r\n    //     product_info storage pdt = product_map[_productId];\r\n    //     return(pdt.name,pdt.description,pdt.owner,pdt.manufacturer_name,pdt.manufacturer_location,pdt.manufactured_time,\r\n    //     pdt.assembler_name,pdt.assembler_location,pdt.assembled_time,pdt.distributor_name,pdt.distributor_location,distributed_time);\r\n    // }\r\n\r\n    function getManufactureDetails(uint _productId) public view\r\n    checkId(_productId) returns (string memory name,\r\n        string memory description,\r\n        address  owner,\r\n        string memory manufacturer_name,\r\n        string memory manufacturer_location,\r\n        uint manufactured_time){\r\n            product_info storage pdt = product_map[_productId];\r\n            require(pdt.stage>=1,\"Data Not Found\");\r\n            return (pdt.name, pdt.description, pdt.owner, pdt.manufacturer_name, pdt.manufacturer_location, pdt.manufactured_time);\r\n    }\r\n\r\n    function getAssemblyDetails(uint _productId) public view\r\n    checkId(_productId) returns (\r\n        string memory assembler_name,\r\n        string memory assembler_location,\r\n        uint assembled_time){\r\n            product_info storage pdt = product_map[_productId];\r\n            require(pdt.stage>=2,\"Data Not Found\");\r\n            return(pdt.assembler_name,pdt.assembler_location,pdt.assembled_time);\r\n    }\r\n\r\n    function getDistributionDetails(uint _productId) public view\r\n    checkId(_productId) returns (\r\n        string memory distributor_name,\r\n        string memory distributor_location,\r\n        uint distributed_time){\r\n            product_info storage pdt = product_map[_productId];\r\n            require(pdt.stage==3,\"Data Not Found\");\r\n            return(pdt.distributor_name,pdt.distributor_location,pdt.distributed_time);\r\n    }\r\n\r\n}",
  "sourcePath": "C:/Users/Sahisnu/Desktop/ProductAuth/contracts/ProductAuth.sol",
  "compiler": {
    "name": "solc",
    "version": "0.5.0+commit.1d4f565a.Emscripten.clang"
  },
  "schemaVersion": "3.0.1",
  "updatedAt": "2020-06-26T10:52:15.252Z",
  "devdoc": {
    "author": "sahisnu",
    "methods": {}
  },
  "userdoc": {
    "methods": {}
  }
}